{
  "contractName": "FantasticNFT",
  "abi": [
    {
      "inputs": [],
      "stateMutability": "nonpayable",
      "type": "constructor"
    },
    {
      "anonymous": false,
      "inputs": [
        {
          "indexed": true,
          "internalType": "address",
          "name": "owner",
          "type": "address"
        },
        {
          "indexed": true,
          "internalType": "address",
          "name": "approved",
          "type": "address"
        },
        {
          "indexed": true,
          "internalType": "uint256",
          "name": "tokenId",
          "type": "uint256"
        }
      ],
      "name": "Approval",
      "type": "event"
    },
    {
      "anonymous": false,
      "inputs": [
        {
          "indexed": true,
          "internalType": "address",
          "name": "owner",
          "type": "address"
        },
        {
          "indexed": true,
          "internalType": "address",
          "name": "operator",
          "type": "address"
        },
        {
          "indexed": false,
          "internalType": "bool",
          "name": "approved",
          "type": "bool"
        }
      ],
      "name": "ApprovalForAll",
      "type": "event"
    },
    {
      "anonymous": false,
      "inputs": [
        {
          "indexed": true,
          "internalType": "address",
          "name": "previousOwner",
          "type": "address"
        },
        {
          "indexed": true,
          "internalType": "address",
          "name": "newOwner",
          "type": "address"
        }
      ],
      "name": "OwnershipTransferred",
      "type": "event"
    },
    {
      "anonymous": false,
      "inputs": [
        {
          "indexed": true,
          "internalType": "address",
          "name": "from",
          "type": "address"
        },
        {
          "indexed": true,
          "internalType": "address",
          "name": "to",
          "type": "address"
        },
        {
          "indexed": true,
          "internalType": "uint256",
          "name": "tokenId",
          "type": "uint256"
        }
      ],
      "name": "Transfer",
      "type": "event"
    },
    {
      "inputs": [],
      "name": "_tokenIds",
      "outputs": [
        {
          "internalType": "uint256",
          "name": "_value",
          "type": "uint256"
        }
      ],
      "stateMutability": "view",
      "type": "function",
      "constant": true
    },
    {
      "inputs": [
        {
          "internalType": "address",
          "name": "to",
          "type": "address"
        },
        {
          "internalType": "uint256",
          "name": "tokenId",
          "type": "uint256"
        }
      ],
      "name": "approve",
      "outputs": [],
      "stateMutability": "nonpayable",
      "type": "function"
    },
    {
      "inputs": [
        {
          "internalType": "address",
          "name": "owner",
          "type": "address"
        }
      ],
      "name": "balanceOf",
      "outputs": [
        {
          "internalType": "uint256",
          "name": "",
          "type": "uint256"
        }
      ],
      "stateMutability": "view",
      "type": "function",
      "constant": true
    },
    {
      "inputs": [
        {
          "internalType": "uint256",
          "name": "tokenId",
          "type": "uint256"
        }
      ],
      "name": "getApproved",
      "outputs": [
        {
          "internalType": "address",
          "name": "",
          "type": "address"
        }
      ],
      "stateMutability": "view",
      "type": "function",
      "constant": true
    },
    {
      "inputs": [
        {
          "internalType": "address",
          "name": "owner",
          "type": "address"
        },
        {
          "internalType": "address",
          "name": "operator",
          "type": "address"
        }
      ],
      "name": "isApprovedForAll",
      "outputs": [
        {
          "internalType": "bool",
          "name": "",
          "type": "bool"
        }
      ],
      "stateMutability": "view",
      "type": "function",
      "constant": true
    },
    {
      "inputs": [],
      "name": "name",
      "outputs": [
        {
          "internalType": "string",
          "name": "",
          "type": "string"
        }
      ],
      "stateMutability": "view",
      "type": "function",
      "constant": true
    },
    {
      "inputs": [],
      "name": "owner",
      "outputs": [
        {
          "internalType": "address",
          "name": "",
          "type": "address"
        }
      ],
      "stateMutability": "view",
      "type": "function",
      "constant": true
    },
    {
      "inputs": [
        {
          "internalType": "uint256",
          "name": "tokenId",
          "type": "uint256"
        }
      ],
      "name": "ownerOf",
      "outputs": [
        {
          "internalType": "address",
          "name": "",
          "type": "address"
        }
      ],
      "stateMutability": "view",
      "type": "function",
      "constant": true
    },
    {
      "inputs": [],
      "name": "renounceOwnership",
      "outputs": [],
      "stateMutability": "nonpayable",
      "type": "function"
    },
    {
      "inputs": [
        {
          "internalType": "address",
          "name": "from",
          "type": "address"
        },
        {
          "internalType": "address",
          "name": "to",
          "type": "address"
        },
        {
          "internalType": "uint256",
          "name": "tokenId",
          "type": "uint256"
        }
      ],
      "name": "safeTransferFrom",
      "outputs": [],
      "stateMutability": "nonpayable",
      "type": "function"
    },
    {
      "inputs": [
        {
          "internalType": "address",
          "name": "from",
          "type": "address"
        },
        {
          "internalType": "address",
          "name": "to",
          "type": "address"
        },
        {
          "internalType": "uint256",
          "name": "tokenId",
          "type": "uint256"
        },
        {
          "internalType": "bytes",
          "name": "data",
          "type": "bytes"
        }
      ],
      "name": "safeTransferFrom",
      "outputs": [],
      "stateMutability": "nonpayable",
      "type": "function"
    },
    {
      "inputs": [
        {
          "internalType": "address",
          "name": "operator",
          "type": "address"
        },
        {
          "internalType": "bool",
          "name": "approved",
          "type": "bool"
        }
      ],
      "name": "setApprovalForAll",
      "outputs": [],
      "stateMutability": "nonpayable",
      "type": "function"
    },
    {
      "inputs": [
        {
          "internalType": "bytes4",
          "name": "interfaceId",
          "type": "bytes4"
        }
      ],
      "name": "supportsInterface",
      "outputs": [
        {
          "internalType": "bool",
          "name": "",
          "type": "bool"
        }
      ],
      "stateMutability": "view",
      "type": "function",
      "constant": true
    },
    {
      "inputs": [],
      "name": "symbol",
      "outputs": [
        {
          "internalType": "string",
          "name": "",
          "type": "string"
        }
      ],
      "stateMutability": "view",
      "type": "function",
      "constant": true
    },
    {
      "inputs": [
        {
          "internalType": "uint256",
          "name": "tokenId",
          "type": "uint256"
        }
      ],
      "name": "tokenURI",
      "outputs": [
        {
          "internalType": "string",
          "name": "",
          "type": "string"
        }
      ],
      "stateMutability": "view",
      "type": "function",
      "constant": true
    },
    {
      "inputs": [
        {
          "internalType": "address",
          "name": "from",
          "type": "address"
        },
        {
          "internalType": "address",
          "name": "to",
          "type": "address"
        },
        {
          "internalType": "uint256",
          "name": "tokenId",
          "type": "uint256"
        }
      ],
      "name": "transferFrom",
      "outputs": [],
      "stateMutability": "nonpayable",
      "type": "function"
    },
    {
      "inputs": [
        {
          "internalType": "address",
          "name": "newOwner",
          "type": "address"
        }
      ],
      "name": "transferOwnership",
      "outputs": [],
      "stateMutability": "nonpayable",
      "type": "function"
    },
    {
      "inputs": [
        {
          "internalType": "address",
          "name": "recipient",
          "type": "address"
        },
        {
          "internalType": "string",
          "name": "tokenURI",
          "type": "string"
        }
      ],
      "name": "mintNFT",
      "outputs": [
        {
          "internalType": "uint256",
          "name": "",
          "type": "uint256"
        }
      ],
      "stateMutability": "nonpayable",
      "type": "function"
    }
  ],
  "bytecode": "0x60806040523480156200001157600080fd5b506040518060400160405280600c81526020017f46616e7461737469634e465400000000000000000000000000000000000000008152506040518060400160405280600381526020017f4e46540000000000000000000000000000000000000000000000000000000000815250816000908051906020019062000096929190620001a6565b508060019080519060200190620000af929190620001a6565b505050620000d2620000c6620000d860201b60201c565b620000e060201b60201c565b620002bb565b600033905090565b6000600760009054906101000a900473ffffffffffffffffffffffffffffffffffffffff16905081600760006101000a81548173ffffffffffffffffffffffffffffffffffffffff021916908373ffffffffffffffffffffffffffffffffffffffff1602179055508173ffffffffffffffffffffffffffffffffffffffff168173ffffffffffffffffffffffffffffffffffffffff167f8be0079c531659141344cd1fd0a4f28419497f9722a3daafe3b4186f6b6457e060405160405180910390a35050565b828054620001b49062000285565b90600052602060002090601f016020900481019282620001d8576000855562000224565b82601f10620001f357805160ff191683800117855562000224565b8280016001018555821562000224579182015b828111156200022357825182559160200191906001019062000206565b5b50905062000233919062000237565b5090565b5b808211156200025257600081600090555060010162000238565b5090565b7f4e487b7100000000000000000000000000000000000000000000000000000000600052602260045260246000fd5b600060028204905060018216806200029e57607f821691505b60208210811415620002b557620002b462000256565b5b50919050565b612c3f80620002cb6000396000f3fe608060405234801561001057600080fd5b50600436106101165760003560e01c80638da5cb5b116100a2578063b88d4fde11610071578063b88d4fde146102cd578063c87b56dd146102e9578063e985e9c514610319578063eacabe1414610349578063f2fde38b1461037957610116565b80638da5cb5b1461025757806395d89b4114610275578063a22cb46514610293578063aa46a400146102af57610116565b806323b872dd116100e957806323b872dd146101b557806342842e0e146101d15780636352211e146101ed57806370a082311461021d578063715018a61461024d57610116565b806301ffc9a71461011b57806306fdde031461014b578063081812fc14610169578063095ea7b314610199575b600080fd5b61013560048036038101906101309190611b11565b610395565b6040516101429190611b59565b60405180910390f35b610153610477565b6040516101609190611c0d565b60405180910390f35b610183600480360381019061017e9190611c65565b610509565b6040516101909190611cd3565b60405180910390f35b6101b360048036038101906101ae9190611d1a565b61054f565b005b6101cf60048036038101906101ca9190611d5a565b610667565b005b6101eb60048036038101906101e69190611d5a565b6106c7565b005b61020760048036038101906102029190611c65565b6106e7565b6040516102149190611cd3565b60405180910390f35b61023760048036038101906102329190611dad565b610799565b6040516102449190611de9565b60405180910390f35b610255610851565b005b61025f610865565b60405161026c9190611cd3565b60405180910390f35b61027d61088f565b60405161028a9190611c0d565b60405180910390f35b6102ad60048036038101906102a89190611e30565b610921565b005b6102b7610937565b6040516102c49190611de9565b60405180910390f35b6102e760048036038101906102e29190611fa5565b610943565b005b61030360048036038101906102fe9190611c65565b6109a5565b6040516103109190611c0d565b60405180910390f35b610333600480360381019061032e9190612028565b610ab8565b6040516103409190611b59565b60405180910390f35b610363600480360381019061035e9190612109565b610b4c565b6040516103709190611de9565b60405180910390f35b610393600480360381019061038e9190611dad565b610b8c565b005b60007f80ac58cd000000000000000000000000000000000000000000000000000000007bffffffffffffffffffffffffffffffffffffffffffffffffffffffff1916827bffffffffffffffffffffffffffffffffffffffffffffffffffffffff1916148061046057507f5b5e139f000000000000000000000000000000000000000000000000000000007bffffffffffffffffffffffffffffffffffffffffffffffffffffffff1916827bffffffffffffffffffffffffffffffffffffffffffffffffffffffff1916145b80610470575061046f82610c10565b5b9050919050565b60606000805461048690612194565b80601f01602080910402602001604051908101604052809291908181526020018280546104b290612194565b80156104ff5780601f106104d4576101008083540402835291602001916104ff565b820191906000526020600020905b8154815290600101906020018083116104e257829003601f168201915b5050505050905090565b600061051482610c7a565b6004600083815260200190815260200160002060009054906101000a900473ffffffffffffffffffffffffffffffffffffffff169050919050565b600061055a826106e7565b90508073ffffffffffffffffffffffffffffffffffffffff168373ffffffffffffffffffffffffffffffffffffffff1614156105cb576040517f08c379a00000000000000000000000000000000000000000000000000000000081526004016105c290612238565b60405180910390fd5b8073ffffffffffffffffffffffffffffffffffffffff166105ea610cc5565b73ffffffffffffffffffffffffffffffffffffffff161480610619575061061881610613610cc5565b610ab8565b5b610658576040517f08c379a000000000000000000000000000000000000000000000000000000000815260040161064f906122ca565b60405180910390fd5b6106628383610ccd565b505050565b610678610672610cc5565b82610d86565b6106b7576040517f08c379a00000000000000000000000000000000000000000000000000000000081526004016106ae9061235c565b60405180910390fd5b6106c2838383610e1b565b505050565b6106e283838360405180602001604052806000815250610943565b505050565b6000806002600084815260200190815260200160002060009054906101000a900473ffffffffffffffffffffffffffffffffffffffff169050600073ffffffffffffffffffffffffffffffffffffffff168173ffffffffffffffffffffffffffffffffffffffff161415610790576040517f08c379a0000000000000000000000000000000000000000000000000000000008152600401610787906123c8565b60405180910390fd5b80915050919050565b60008073ffffffffffffffffffffffffffffffffffffffff168273ffffffffffffffffffffffffffffffffffffffff16141561080a576040517f08c379a00000000000000000000000000000000000000000000000000000000081526004016108019061245a565b60405180910390fd5b600360008373ffffffffffffffffffffffffffffffffffffffff1673ffffffffffffffffffffffffffffffffffffffff168152602001908152602001600020549050919050565b610859611082565b6108636000611100565b565b6000600760009054906101000a900473ffffffffffffffffffffffffffffffffffffffff16905090565b60606001805461089e90612194565b80601f01602080910402602001604051908101604052809291908181526020018280546108ca90612194565b80156109175780601f106108ec57610100808354040283529160200191610917565b820191906000526020600020905b8154815290600101906020018083116108fa57829003601f168201915b5050505050905090565b61093361092c610cc5565b83836111c6565b5050565b60088060000154905081565b61095461094e610cc5565b83610d86565b610993576040517f08c379a000000000000000000000000000000000000000000000000000000000815260040161098a9061235c565b60405180910390fd5b61099f84848484611333565b50505050565b60606109b082610c7a565b60006006600084815260200190815260200160002080546109d090612194565b80601f01602080910402602001604051908101604052809291908181526020018280546109fc90612194565b8015610a495780601f10610a1e57610100808354040283529160200191610a49565b820191906000526020600020905b815481529060010190602001808311610a2c57829003601f168201915b505050505090506000610a5a61138f565b9050600081511415610a70578192505050610ab3565b600082511115610aa5578082604051602001610a8d9291906124b6565b60405160208183030381529060405292505050610ab3565b610aae846113a6565b925050505b919050565b6000600560008473ffffffffffffffffffffffffffffffffffffffff1673ffffffffffffffffffffffffffffffffffffffff16815260200190815260200160002060008373ffffffffffffffffffffffffffffffffffffffff1673ffffffffffffffffffffffffffffffffffffffff16815260200190815260200160002060009054906101000a900460ff16905092915050565b6000610b56611082565b610b60600861140e565b6000610b6c6008611424565b9050610b788482611432565b610b82818461160c565b8091505092915050565b610b94611082565b600073ffffffffffffffffffffffffffffffffffffffff168173ffffffffffffffffffffffffffffffffffffffff161415610c04576040517f08c379a0000000000000000000000000000000000000000000000000000000008152600401610bfb9061254c565b60405180910390fd5b610c0d81611100565b50565b60007f01ffc9a7000000000000000000000000000000000000000000000000000000007bffffffffffffffffffffffffffffffffffffffffffffffffffffffff1916827bffffffffffffffffffffffffffffffffffffffffffffffffffffffff1916149050919050565b610c8381611680565b610cc2576040517f08c379a0000000000000000000000000000000000000000000000000000000008152600401610cb9906123c8565b60405180910390fd5b50565b600033905090565b816004600083815260200190815260200160002060006101000a81548173ffffffffffffffffffffffffffffffffffffffff021916908373ffffffffffffffffffffffffffffffffffffffff160217905550808273ffffffffffffffffffffffffffffffffffffffff16610d40836106e7565b73ffffffffffffffffffffffffffffffffffffffff167f8c5be1e5ebec7d5bd14f71427d1e84f3dd0314c0f7b2291e5b200ac8c7c3b92560405160405180910390a45050565b600080610d92836106e7565b90508073ffffffffffffffffffffffffffffffffffffffff168473ffffffffffffffffffffffffffffffffffffffff161480610dd45750610dd38185610ab8565b5b80610e1257508373ffffffffffffffffffffffffffffffffffffffff16610dfa84610509565b73ffffffffffffffffffffffffffffffffffffffff16145b91505092915050565b8273ffffffffffffffffffffffffffffffffffffffff16610e3b826106e7565b73ffffffffffffffffffffffffffffffffffffffff1614610e91576040517f08c379a0000000000000000000000000000000000000000000000000000000008152600401610e88906125de565b60405180910390fd5b600073ffffffffffffffffffffffffffffffffffffffff168273ffffffffffffffffffffffffffffffffffffffff161415610f01576040517f08c379a0000000000000000000000000000000000000000000000000000000008152600401610ef890612670565b60405180910390fd5b610f0c8383836116ec565b610f17600082610ccd565b6001600360008573ffffffffffffffffffffffffffffffffffffffff1673ffffffffffffffffffffffffffffffffffffffff1681526020019081526020016000206000828254610f6791906126bf565b925050819055506001600360008473ffffffffffffffffffffffffffffffffffffffff1673ffffffffffffffffffffffffffffffffffffffff1681526020019081526020016000206000828254610fbe91906126f3565b92505081905550816002600083815260200190815260200160002060006101000a81548173ffffffffffffffffffffffffffffffffffffffff021916908373ffffffffffffffffffffffffffffffffffffffff160217905550808273ffffffffffffffffffffffffffffffffffffffff168473ffffffffffffffffffffffffffffffffffffffff167fddf252ad1be2c89b69c2b068fc378daa952ba7f163c4a11628f55a4df523b3ef60405160405180910390a461107d8383836116f1565b505050565b61108a610cc5565b73ffffffffffffffffffffffffffffffffffffffff166110a8610865565b73ffffffffffffffffffffffffffffffffffffffff16146110fe576040517f08c379a00000000000000000000000000000000000000000000000000000000081526004016110f590612795565b60405180910390fd5b565b6000600760009054906101000a900473ffffffffffffffffffffffffffffffffffffffff16905081600760006101000a81548173ffffffffffffffffffffffffffffffffffffffff021916908373ffffffffffffffffffffffffffffffffffffffff1602179055508173ffffffffffffffffffffffffffffffffffffffff168173ffffffffffffffffffffffffffffffffffffffff167f8be0079c531659141344cd1fd0a4f28419497f9722a3daafe3b4186f6b6457e060405160405180910390a35050565b8173ffffffffffffffffffffffffffffffffffffffff168373ffffffffffffffffffffffffffffffffffffffff161415611235576040517f08c379a000000000000000000000000000000000000000000000000000000000815260040161122c90612801565b60405180910390fd5b80600560008573ffffffffffffffffffffffffffffffffffffffff1673ffffffffffffffffffffffffffffffffffffffff16815260200190815260200160002060008473ffffffffffffffffffffffffffffffffffffffff1673ffffffffffffffffffffffffffffffffffffffff16815260200190815260200160002060006101000a81548160ff0219169083151502179055508173ffffffffffffffffffffffffffffffffffffffff168373ffffffffffffffffffffffffffffffffffffffff167f17307eab39ab6107e8899845ad3d59bd9653f200f220920489ca2b5937696c31836040516113269190611b59565b60405180910390a3505050565b61133e848484610e1b565b61134a848484846116f6565b611389576040517f08c379a000000000000000000000000000000000000000000000000000000000815260040161138090612893565b60405180910390fd5b50505050565b606060405180602001604052806000815250905090565b60606113b182610c7a565b60006113bb61138f565b905060008151116113db5760405180602001604052806000815250611406565b806113e58461187e565b6040516020016113f69291906124b6565b6040516020818303038152906040525b915050919050565b6001816000016000828254019250508190555050565b600081600001549050919050565b600073ffffffffffffffffffffffffffffffffffffffff168273ffffffffffffffffffffffffffffffffffffffff1614156114a2576040517f08c379a0000000000000000000000000000000000000000000000000000000008152600401611499906128ff565b60405180910390fd5b6114ab81611680565b156114eb576040517f08c379a00000000000000000000000000000000000000000000000000000000081526004016114e29061296b565b60405180910390fd5b6114f7600083836116ec565b6001600360008473ffffffffffffffffffffffffffffffffffffffff1673ffffffffffffffffffffffffffffffffffffffff168152602001908152602001600020600082825461154791906126f3565b92505081905550816002600083815260200190815260200160002060006101000a81548173ffffffffffffffffffffffffffffffffffffffff021916908373ffffffffffffffffffffffffffffffffffffffff160217905550808273ffffffffffffffffffffffffffffffffffffffff16600073ffffffffffffffffffffffffffffffffffffffff167fddf252ad1be2c89b69c2b068fc378daa952ba7f163c4a11628f55a4df523b3ef60405160405180910390a4611608600083836116f1565b5050565b61161582611680565b611654576040517f08c379a000000000000000000000000000000000000000000000000000000000815260040161164b906129fd565b60405180910390fd5b8060066000848152602001908152602001600020908051906020019061167b929190611a02565b505050565b60008073ffffffffffffffffffffffffffffffffffffffff166002600084815260200190815260200160002060009054906101000a900473ffffffffffffffffffffffffffffffffffffffff1673ffffffffffffffffffffffffffffffffffffffff1614159050919050565b505050565b505050565b60006117178473ffffffffffffffffffffffffffffffffffffffff166119df565b15611871578373ffffffffffffffffffffffffffffffffffffffff1663150b7a02611740610cc5565b8786866040518563ffffffff1660e01b81526004016117629493929190612a72565b6020604051808303816000875af192505050801561179e57506040513d601f19601f8201168201806040525081019061179b9190612ad3565b60015b611821573d80600081146117ce576040519150601f19603f3d011682016040523d82523d6000602084013e6117d3565b606091505b50600081511415611819576040517f08c379a000000000000000000000000000000000000000000000000000000000815260040161181090612893565b60405180910390fd5b805181602001fd5b63150b7a0260e01b7bffffffffffffffffffffffffffffffffffffffffffffffffffffffff1916817bffffffffffffffffffffffffffffffffffffffffffffffffffffffff191614915050611876565b600190505b949350505050565b606060008214156118c6576040518060400160405280600181526020017f300000000000000000000000000000000000000000000000000000000000000081525090506119da565b600082905060005b600082146118f85780806118e190612b00565b915050600a826118f19190612b78565b91506118ce565b60008167ffffffffffffffff81111561191457611913611e7a565b5b6040519080825280601f01601f1916602001820160405280156119465781602001600182028036833780820191505090505b5090505b600085146119d35760018261195f91906126bf565b9150600a8561196e9190612ba9565b603061197a91906126f3565b60f81b8183815181106119905761198f612bda565b5b60200101907effffffffffffffffffffffffffffffffffffffffffffffffffffffffffffff1916908160001a905350600a856119cc9190612b78565b945061194a565b8093505050505b919050565b6000808273ffffffffffffffffffffffffffffffffffffffff163b119050919050565b828054611a0e90612194565b90600052602060002090601f016020900481019282611a305760008555611a77565b82601f10611a4957805160ff1916838001178555611a77565b82800160010185558215611a77579182015b82811115611a76578251825591602001919060010190611a5b565b5b509050611a849190611a88565b5090565b5b80821115611aa1576000816000905550600101611a89565b5090565b6000604051905090565b600080fd5b600080fd5b60007fffffffff0000000000000000000000000000000000000000000000000000000082169050919050565b611aee81611ab9565b8114611af957600080fd5b50565b600081359050611b0b81611ae5565b92915050565b600060208284031215611b2757611b26611aaf565b5b6000611b3584828501611afc565b91505092915050565b60008115159050919050565b611b5381611b3e565b82525050565b6000602082019050611b6e6000830184611b4a565b92915050565b600081519050919050565b600082825260208201905092915050565b60005b83811015611bae578082015181840152602081019050611b93565b83811115611bbd576000848401525b50505050565b6000601f19601f8301169050919050565b6000611bdf82611b74565b611be98185611b7f565b9350611bf9818560208601611b90565b611c0281611bc3565b840191505092915050565b60006020820190508181036000830152611c278184611bd4565b905092915050565b6000819050919050565b611c4281611c2f565b8114611c4d57600080fd5b50565b600081359050611c5f81611c39565b92915050565b600060208284031215611c7b57611c7a611aaf565b5b6000611c8984828501611c50565b91505092915050565b600073ffffffffffffffffffffffffffffffffffffffff82169050919050565b6000611cbd82611c92565b9050919050565b611ccd81611cb2565b82525050565b6000602082019050611ce86000830184611cc4565b92915050565b611cf781611cb2565b8114611d0257600080fd5b50565b600081359050611d1481611cee565b92915050565b60008060408385031215611d3157611d30611aaf565b5b6000611d3f85828601611d05565b9250506020611d5085828601611c50565b9150509250929050565b600080600060608486031215611d7357611d72611aaf565b5b6000611d8186828701611d05565b9350506020611d9286828701611d05565b9250506040611da386828701611c50565b9150509250925092565b600060208284031215611dc357611dc2611aaf565b5b6000611dd184828501611d05565b91505092915050565b611de381611c2f565b82525050565b6000602082019050611dfe6000830184611dda565b92915050565b611e0d81611b3e565b8114611e1857600080fd5b50565b600081359050611e2a81611e04565b92915050565b60008060408385031215611e4757611e46611aaf565b5b6000611e5585828601611d05565b9250506020611e6685828601611e1b565b9150509250929050565b600080fd5b600080fd5b7f4e487b7100000000000000000000000000000000000000000000000000000000600052604160045260246000fd5b611eb282611bc3565b810181811067ffffffffffffffff82111715611ed157611ed0611e7a565b5b80604052505050565b6000611ee4611aa5565b9050611ef08282611ea9565b919050565b600067ffffffffffffffff821115611f1057611f0f611e7a565b5b611f1982611bc3565b9050602081019050919050565b82818337600083830152505050565b6000611f48611f4384611ef5565b611eda565b905082815260208101848484011115611f6457611f63611e75565b5b611f6f848285611f26565b509392505050565b600082601f830112611f8c57611f8b611e70565b5b8135611f9c848260208601611f35565b91505092915050565b60008060008060808587031215611fbf57611fbe611aaf565b5b6000611fcd87828801611d05565b9450506020611fde87828801611d05565b9350506040611fef87828801611c50565b925050606085013567ffffffffffffffff8111156120105761200f611ab4565b5b61201c87828801611f77565b91505092959194509250565b6000806040838503121561203f5761203e611aaf565b5b600061204d85828601611d05565b925050602061205e85828601611d05565b9150509250929050565b600067ffffffffffffffff82111561208357612082611e7a565b5b61208c82611bc3565b9050602081019050919050565b60006120ac6120a784612068565b611eda565b9050828152602081018484840111156120c8576120c7611e75565b5b6120d3848285611f26565b509392505050565b600082601f8301126120f0576120ef611e70565b5b8135612100848260208601612099565b91505092915050565b600080604083850312156121205761211f611aaf565b5b600061212e85828601611d05565b925050602083013567ffffffffffffffff81111561214f5761214e611ab4565b5b61215b858286016120db565b9150509250929050565b7f4e487b7100000000000000000000000000000000000000000000000000000000600052602260045260246000fd5b600060028204905060018216806121ac57607f821691505b602082108114156121c0576121bf612165565b5b50919050565b7f4552433732313a20617070726f76616c20746f2063757272656e74206f776e6560008201527f7200000000000000000000000000000000000000000000000000000000000000602082015250565b6000612222602183611b7f565b915061222d826121c6565b604082019050919050565b6000602082019050818103600083015261225181612215565b9050919050565b7f4552433732313a20617070726f76652063616c6c6572206973206e6f7420746f60008201527f6b656e206f776e6572206e6f7220617070726f76656420666f7220616c6c0000602082015250565b60006122b4603e83611b7f565b91506122bf82612258565b604082019050919050565b600060208201905081810360008301526122e3816122a7565b9050919050565b7f4552433732313a2063616c6c6572206973206e6f7420746f6b656e206f776e6560008201527f72206e6f7220617070726f766564000000000000000000000000000000000000602082015250565b6000612346602e83611b7f565b9150612351826122ea565b604082019050919050565b6000602082019050818103600083015261237581612339565b9050919050565b7f4552433732313a20696e76616c696420746f6b656e2049440000000000000000600082015250565b60006123b2601883611b7f565b91506123bd8261237c565b602082019050919050565b600060208201905081810360008301526123e1816123a5565b9050919050565b7f4552433732313a2061646472657373207a65726f206973206e6f74206120766160008201527f6c6964206f776e65720000000000000000000000000000000000000000000000602082015250565b6000612444602983611b7f565b915061244f826123e8565b604082019050919050565b6000602082019050818103600083015261247381612437565b9050919050565b600081905092915050565b600061249082611b74565b61249a818561247a565b93506124aa818560208601611b90565b80840191505092915050565b60006124c28285612485565b91506124ce8284612485565b91508190509392505050565b7f4f776e61626c653a206e6577206f776e657220697320746865207a65726f206160008201527f6464726573730000000000000000000000000000000000000000000000000000602082015250565b6000612536602683611b7f565b9150612541826124da565b604082019050919050565b6000602082019050818103600083015261256581612529565b9050919050565b7f4552433732313a207472616e736665722066726f6d20696e636f72726563742060008201527f6f776e6572000000000000000000000000000000000000000000000000000000602082015250565b60006125c8602583611b7f565b91506125d38261256c565b604082019050919050565b600060208201905081810360008301526125f7816125bb565b9050919050565b7f4552433732313a207472616e7366657220746f20746865207a65726f2061646460008201527f7265737300000000000000000000000000000000000000000000000000000000602082015250565b600061265a602483611b7f565b9150612665826125fe565b604082019050919050565b600060208201905081810360008301526126898161264d565b9050919050565b7f4e487b7100000000000000000000000000000000000000000000000000000000600052601160045260246000fd5b60006126ca82611c2f565b91506126d583611c2f565b9250828210156126e8576126e7612690565b5b828203905092915050565b60006126fe82611c2f565b915061270983611c2f565b9250827fffffffffffffffffffffffffffffffffffffffffffffffffffffffffffffffff0382111561273e5761273d612690565b5b828201905092915050565b7f4f776e61626c653a2063616c6c6572206973206e6f7420746865206f776e6572600082015250565b600061277f602083611b7f565b915061278a82612749565b602082019050919050565b600060208201905081810360008301526127ae81612772565b9050919050565b7f4552433732313a20617070726f766520746f2063616c6c657200000000000000600082015250565b60006127eb601983611b7f565b91506127f6826127b5565b602082019050919050565b6000602082019050818103600083015261281a816127de565b9050919050565b7f4552433732313a207472616e7366657220746f206e6f6e20455243373231526560008201527f63656976657220696d706c656d656e7465720000000000000000000000000000602082015250565b600061287d603283611b7f565b915061288882612821565b604082019050919050565b600060208201905081810360008301526128ac81612870565b9050919050565b7f4552433732313a206d696e7420746f20746865207a65726f2061646472657373600082015250565b60006128e9602083611b7f565b91506128f4826128b3565b602082019050919050565b60006020820190508181036000830152612918816128dc565b9050919050565b7f4552433732313a20746f6b656e20616c7265616479206d696e74656400000000600082015250565b6000612955601c83611b7f565b91506129608261291f565b602082019050919050565b6000602082019050818103600083015261298481612948565b9050919050565b7f45524337323155524953746f726167653a2055524920736574206f66206e6f6e60008201527f6578697374656e7420746f6b656e000000000000000000000000000000000000602082015250565b60006129e7602e83611b7f565b91506129f28261298b565b604082019050919050565b60006020820190508181036000830152612a16816129da565b9050919050565b600081519050919050565b600082825260208201905092915050565b6000612a4482612a1d565b612a4e8185612a28565b9350612a5e818560208601611b90565b612a6781611bc3565b840191505092915050565b6000608082019050612a876000830187611cc4565b612a946020830186611cc4565b612aa16040830185611dda565b8181036060830152612ab38184612a39565b905095945050505050565b600081519050612acd81611ae5565b92915050565b600060208284031215612ae957612ae8611aaf565b5b6000612af784828501612abe565b91505092915050565b6000612b0b82611c2f565b91507fffffffffffffffffffffffffffffffffffffffffffffffffffffffffffffffff821415612b3e57612b3d612690565b5b600182019050919050565b7f4e487b7100000000000000000000000000000000000000000000000000000000600052601260045260246000fd5b6000612b8382611c2f565b9150612b8e83611c2f565b925082612b9e57612b9d612b49565b5b828204905092915050565b6000612bb482611c2f565b9150612bbf83611c2f565b925082612bcf57612bce612b49565b5b828206905092915050565b7f4e487b7100000000000000000000000000000000000000000000000000000000600052603260045260246000fdfea2646970667358221220bbe9df75af5d2e043fc3463a24b08a33b9125f11e5a2b506da9fd5207834212364736f6c634300080a0033",
  "immutableReferences": {},
  "source": "// SPDX-License-Identifier: GPL-3.0\r\npragma solidity ^0.8.10;\r\n\r\nimport \"@openzeppelin/contracts/token/ERC20/ERC20.sol\";\r\n\r\ncontract FantasticToken is ERC20 {\r\n    constructor() ERC20(\"FanstasticToken\", \"Token\") {\r\n          _mint(msg.sender, 100000000e18);\r\n    }\r\n}\r\n\r\nimport \"@openzeppelin/contracts/token/ERC721/ERC721.sol\";\r\nimport \"@openzeppelin/contracts/utils/Counters.sol\";\r\nimport \"@openzeppelin/contracts/access/Ownable.sol\";\r\nimport \"@openzeppelin/contracts/token/ERC721/extensions/ERC721URIStorage.sol\";\r\n\r\ncontract FantasticNFT is ERC721URIStorage, Ownable {\r\n    using Counters for Counters.Counter;\r\n    Counters.Counter public _tokenIds;\r\n\r\n    constructor() public ERC721(\"FantasticNFT\", \"NFT\") {}\r\n\r\n    function mintNFT(address recipient, string memory tokenURI)\r\n        public onlyOwner\r\n        returns (uint256)\r\n    {\r\n        _tokenIds.increment();\r\n\r\n        uint256 newItemId = _tokenIds.current();\r\n        _mint(recipient, newItemId);\r\n        _setTokenURI(newItemId, tokenURI);\r\n\r\n        return newItemId;\r\n    }\r\n}",
  "sourcePath": "C:\\coding\\beb4\\BEB-06-SECOND-04\\server\\truffle\\contracts\\contract.sol",
  "compiler": {
    "name": "solc",
    "version": "0.8.10+commit.fc410830.Emscripten.clang"
  },
  "schemaVersion": "3.4.10",
  "updatedAt": "2022-11-01T02:17:35.490Z",
  "networkType": "ethereum",
  "devdoc": {
    "kind": "dev",
    "methods": {
      "approve(address,uint256)": {
        "details": "See {IERC721-approve}."
      },
      "balanceOf(address)": {
        "details": "See {IERC721-balanceOf}."
      },
      "getApproved(uint256)": {
        "details": "See {IERC721-getApproved}."
      },
      "isApprovedForAll(address,address)": {
        "details": "See {IERC721-isApprovedForAll}."
      },
      "name()": {
        "details": "See {IERC721Metadata-name}."
      },
      "owner()": {
        "details": "Returns the address of the current owner."
      },
      "ownerOf(uint256)": {
        "details": "See {IERC721-ownerOf}."
      },
      "renounceOwnership()": {
        "details": "Leaves the contract without owner. It will not be possible to call `onlyOwner` functions anymore. Can only be called by the current owner. NOTE: Renouncing ownership will leave the contract without an owner, thereby removing any functionality that is only available to the owner."
      },
      "safeTransferFrom(address,address,uint256)": {
        "details": "See {IERC721-safeTransferFrom}."
      },
      "safeTransferFrom(address,address,uint256,bytes)": {
        "details": "See {IERC721-safeTransferFrom}."
      },
      "setApprovalForAll(address,bool)": {
        "details": "See {IERC721-setApprovalForAll}."
      },
      "supportsInterface(bytes4)": {
        "details": "See {IERC165-supportsInterface}."
      },
      "symbol()": {
        "details": "See {IERC721Metadata-symbol}."
      },
      "tokenURI(uint256)": {
        "details": "See {IERC721Metadata-tokenURI}."
      },
      "transferFrom(address,address,uint256)": {
        "details": "See {IERC721-transferFrom}."
      },
      "transferOwnership(address)": {
        "details": "Transfers ownership of the contract to a new account (`newOwner`). Can only be called by the current owner."
      }
    },
    "version": 1
  },
  "userdoc": {
    "kind": "user",
    "methods": {},
    "version": 1
  }
}